{
  "_format": "hh-sol-artifact-1",
  "contractName": "NFTstore",
  "sourceName": "contracts/NFTshop.sol",
  "abi": [
    {
      "inputs": [
        {
          "internalType": "string",
          "name": "_initbaseURI",
          "type": "string"
        },
        {
          "internalType": "uint256",
          "name": "_royalityFee",
          "type": "uint256"
        },
        {
          "internalType": "address",
          "name": "_governance",
          "type": "address"
        }
      ],
      "stateMutability": "nonpayable",
      "type": "constructor"
    },
    {
      "anonymous": false,
      "inputs": [
        {
          "indexed": true,
          "internalType": "address",
          "name": "owner",
          "type": "address"
        },
        {
          "indexed": true,
          "internalType": "address",
          "name": "approved",
          "type": "address"
        },
        {
          "indexed": true,
          "internalType": "uint256",
          "name": "tokenId",
          "type": "uint256"
        }
      ],
      "name": "Approval",
      "type": "event"
    },
    {
      "anonymous": false,
      "inputs": [
        {
          "indexed": true,
          "internalType": "address",
          "name": "owner",
          "type": "address"
        },
        {
          "indexed": true,
          "internalType": "address",
          "name": "operator",
          "type": "address"
        },
        {
          "indexed": false,
          "internalType": "bool",
          "name": "approved",
          "type": "bool"
        }
      ],
      "name": "ApprovalForAll",
      "type": "event"
    },
    {
      "anonymous": false,
      "inputs": [
        {
          "indexed": true,
          "internalType": "address",
          "name": "previousOwner",
          "type": "address"
        },
        {
          "indexed": true,
          "internalType": "address",
          "name": "newOwner",
          "type": "address"
        }
      ],
      "name": "OwnershipTransferred",
      "type": "event"
    },
    {
      "anonymous": false,
      "inputs": [
        {
          "indexed": false,
          "internalType": "address",
          "name": "from",
          "type": "address"
        },
        {
          "indexed": false,
          "internalType": "address",
          "name": "to",
          "type": "address"
        },
        {
          "indexed": false,
          "internalType": "uint256",
          "name": "value",
          "type": "uint256"
        }
      ],
      "name": "Sale",
      "type": "event"
    },
    {
      "anonymous": false,
      "inputs": [
        {
          "indexed": true,
          "internalType": "address",
          "name": "from",
          "type": "address"
        },
        {
          "indexed": true,
          "internalType": "address",
          "name": "to",
          "type": "address"
        },
        {
          "indexed": true,
          "internalType": "uint256",
          "name": "tokenId",
          "type": "uint256"
        }
      ],
      "name": "Transfer",
      "type": "event"
    },
    {
      "inputs": [
        {
          "internalType": "address",
          "name": "to",
          "type": "address"
        },
        {
          "internalType": "uint256",
          "name": "tokenId",
          "type": "uint256"
        }
      ],
      "name": "approve",
      "outputs": [],
      "stateMutability": "nonpayable",
      "type": "function"
    },
    {
      "inputs": [
        {
          "internalType": "address",
          "name": "owner",
          "type": "address"
        }
      ],
      "name": "balanceOf",
      "outputs": [
        {
          "internalType": "uint256",
          "name": "",
          "type": "uint256"
        }
      ],
      "stateMutability": "view",
      "type": "function"
    },
    {
      "inputs": [],
      "name": "baseExt",
      "outputs": [
        {
          "internalType": "string",
          "name": "",
          "type": "string"
        }
      ],
      "stateMutability": "view",
      "type": "function"
    },
    {
      "inputs": [
        {
          "internalType": "uint256",
          "name": "tokenId",
          "type": "uint256"
        }
      ],
      "name": "getApproved",
      "outputs": [
        {
          "internalType": "address",
          "name": "",
          "type": "address"
        }
      ],
      "stateMutability": "view",
      "type": "function"
    },
    {
      "inputs": [
        {
          "internalType": "uint256",
          "name": "",
          "type": "uint256"
        }
      ],
      "name": "idToItem",
      "outputs": [
        {
          "internalType": "uint256",
          "name": "id",
          "type": "uint256"
        },
        {
          "internalType": "address",
          "name": "currentOwner",
          "type": "address"
        },
        {
          "internalType": "uint256",
          "name": "price",
          "type": "uint256"
        },
        {
          "internalType": "enum NFTstore.fileType",
          "name": "ftype",
          "type": "uint8"
        }
      ],
      "stateMutability": "view",
      "type": "function"
    },
    {
      "inputs": [
        {
          "internalType": "address",
          "name": "owner",
          "type": "address"
        },
        {
          "internalType": "address",
          "name": "operator",
          "type": "address"
        }
      ],
      "name": "isApprovedForAll",
      "outputs": [
        {
          "internalType": "bool",
          "name": "",
          "type": "bool"
        }
      ],
      "stateMutability": "view",
      "type": "function"
    },
    {
      "inputs": [
        {
          "internalType": "uint256",
          "name": "_price",
          "type": "uint256"
        },
        {
          "internalType": "enum NFTstore.fileType",
          "name": "_ftype",
          "type": "uint8"
        }
      ],
      "name": "mint",
      "outputs": [],
      "stateMutability": "payable",
      "type": "function"
    },
    {
      "inputs": [],
      "name": "name",
      "outputs": [
        {
          "internalType": "string",
          "name": "",
          "type": "string"
        }
      ],
      "stateMutability": "view",
      "type": "function"
    },
    {
      "inputs": [],
      "name": "owner",
      "outputs": [
        {
          "internalType": "address",
          "name": "",
          "type": "address"
        }
      ],
      "stateMutability": "view",
      "type": "function"
    },
    {
      "inputs": [
        {
          "internalType": "uint256",
          "name": "tokenId",
          "type": "uint256"
        }
      ],
      "name": "ownerOf",
      "outputs": [
        {
          "internalType": "address",
          "name": "",
          "type": "address"
        }
      ],
      "stateMutability": "view",
      "type": "function"
    },
    {
      "inputs": [],
      "name": "renounceOwnership",
      "outputs": [],
      "stateMutability": "nonpayable",
      "type": "function"
    },
    {
      "inputs": [
        {
          "internalType": "address",
          "name": "from",
          "type": "address"
        },
        {
          "internalType": "address",
          "name": "to",
          "type": "address"
        },
        {
          "internalType": "uint256",
          "name": "tokenId",
          "type": "uint256"
        }
      ],
      "name": "safeTransferFrom",
      "outputs": [],
      "stateMutability": "payable",
      "type": "function"
    },
    {
      "inputs": [
        {
          "internalType": "address",
          "name": "from",
          "type": "address"
        },
        {
          "internalType": "address",
          "name": "to",
          "type": "address"
        },
        {
          "internalType": "uint256",
          "name": "tokenId",
          "type": "uint256"
        },
        {
          "internalType": "bytes",
          "name": "_data",
          "type": "bytes"
        }
      ],
      "name": "safeTransferFrom",
      "outputs": [],
      "stateMutability": "payable",
      "type": "function"
    },
    {
      "inputs": [
        {
          "internalType": "address",
          "name": "operator",
          "type": "address"
        },
        {
          "internalType": "bool",
          "name": "approved",
          "type": "bool"
        }
      ],
      "name": "setApprovalForAll",
      "outputs": [],
      "stateMutability": "nonpayable",
      "type": "function"
    },
    {
      "inputs": [
        {
          "internalType": "string",
          "name": "_newBaseURI",
          "type": "string"
        }
      ],
      "name": "setBaseURI",
      "outputs": [],
      "stateMutability": "nonpayable",
      "type": "function"
    },
    {
      "inputs": [
        {
          "internalType": "enum NFTstore.fileType",
          "name": "_ftype",
          "type": "uint8"
        },
        {
          "internalType": "uint256",
          "name": "value",
          "type": "uint256"
        }
      ],
      "name": "setRoyality",
      "outputs": [],
      "stateMutability": "nonpayable",
      "type": "function"
    },
    {
      "inputs": [
        {
          "internalType": "bytes4",
          "name": "interfaceId",
          "type": "bytes4"
        }
      ],
      "name": "supportsInterface",
      "outputs": [
        {
          "internalType": "bool",
          "name": "",
          "type": "bool"
        }
      ],
      "stateMutability": "view",
      "type": "function"
    },
    {
      "inputs": [],
      "name": "symbol",
      "outputs": [
        {
          "internalType": "string",
          "name": "",
          "type": "string"
        }
      ],
      "stateMutability": "view",
      "type": "function"
    },
    {
      "inputs": [
        {
          "internalType": "uint256",
          "name": "index",
          "type": "uint256"
        }
      ],
      "name": "tokenByIndex",
      "outputs": [
        {
          "internalType": "uint256",
          "name": "",
          "type": "uint256"
        }
      ],
      "stateMutability": "view",
      "type": "function"
    },
    {
      "inputs": [
        {
          "internalType": "address",
          "name": "owner",
          "type": "address"
        },
        {
          "internalType": "uint256",
          "name": "index",
          "type": "uint256"
        }
      ],
      "name": "tokenOfOwnerByIndex",
      "outputs": [
        {
          "internalType": "uint256",
          "name": "",
          "type": "uint256"
        }
      ],
      "stateMutability": "view",
      "type": "function"
    },
    {
      "inputs": [
        {
          "internalType": "uint256",
          "name": "tokenId",
          "type": "uint256"
        }
      ],
      "name": "tokenURI",
      "outputs": [
        {
          "internalType": "string",
          "name": "",
          "type": "string"
        }
      ],
      "stateMutability": "view",
      "type": "function"
    },
    {
      "inputs": [],
      "name": "totalSupply",
      "outputs": [
        {
          "internalType": "uint256",
          "name": "",
          "type": "uint256"
        }
      ],
      "stateMutability": "view",
      "type": "function"
    },
    {
      "inputs": [
        {
          "internalType": "address",
          "name": "from",
          "type": "address"
        },
        {
          "internalType": "address",
          "name": "to",
          "type": "address"
        },
        {
          "internalType": "uint256",
          "name": "tokenId",
          "type": "uint256"
        }
      ],
      "name": "transferFrom",
      "outputs": [],
      "stateMutability": "payable",
      "type": "function"
    },
    {
      "inputs": [
        {
          "internalType": "address",
          "name": "newOwner",
          "type": "address"
        }
      ],
      "name": "transferOwnership",
      "outputs": [],
      "stateMutability": "nonpayable",
      "type": "function"
    },
    {
      "inputs": [
        {
          "internalType": "uint256",
          "name": "",
          "type": "uint256"
        }
      ],
      "name": "typeToRoyalityFees",
      "outputs": [
        {
          "internalType": "uint256",
          "name": "",
          "type": "uint256"
        }
      ],
      "stateMutability": "view",
      "type": "function"
    }
  ],
  "bytecode": "0x6001600c5560c06040526005608081905264173539b7b760d91b60a09081526200002d91600f919062000214565b503480156200003b57600080fd5b5060405162002767380380620027678339810160408190526200005e91620002ed565b604080518082018252600b81526a4d696e747953747564696f60a81b6020808301918252835180850190945260028452614d5360f01b908401528151919291620000ab9160009162000214565b508051620000c190600190602084019062000214565b505050620000de620000d86200014660201b60201c565b6200014a565b600b829055600d80546001600160a01b0319166001600160a01b03831617905562000109836200019c565b60005b60048110156200013c576000818152601060205260409020839055806200013381620003e8565b9150506200010c565b505050506200044f565b3390565b600a80546001600160a01b038381166001600160a01b0319831681179093556040519116919082907f8be0079c531659141344cd1fd0a4f28419497f9722a3daafe3b4186f6b6457e090600090a35050565b600a546001600160a01b03163314620001fb5760405162461bcd60e51b815260206004820181905260248201527f4f776e61626c653a2063616c6c6572206973206e6f7420746865206f776e6572604482015260640160405180910390fd5b80516200021090600e90602084019062000214565b5050565b828054620002229062000412565b90600052602060002090601f01602090048101928262000246576000855562000291565b82601f106200026157805160ff191683800117855562000291565b8280016001018555821562000291579182015b828111156200029157825182559160200191906001019062000274565b506200029f929150620002a3565b5090565b5b808211156200029f5760008155600101620002a4565b634e487b7160e01b600052604160045260246000fd5b80516001600160a01b0381168114620002e857600080fd5b919050565b6000806000606084860312156200030357600080fd5b83516001600160401b03808211156200031b57600080fd5b818601915086601f8301126200033057600080fd5b815181811115620003455762000345620002ba565b604051601f8201601f19908116603f01168101908382118183101715620003705762000370620002ba565b816040528281526020935089848487010111156200038d57600080fd5b600091505b82821015620003b1578482018401518183018501529083019062000392565b82821115620003c35760008484830101525b8097505050508086015193505050620003df60408501620002d0565b90509250925092565b60006000198214156200040b57634e487b7160e01b600052601160045260246000fd5b5060010190565b600181811c908216806200042757607f821691505b602082108114156200044957634e487b7160e01b600052602260045260246000fd5b50919050565b612308806200045f6000396000f3fe6080604052600436106101965760003560e01c806370a08231116100e1578063a22cb4651161008a578063c87b56dd11610064578063c87b56dd1461046d578063e985e9c51461048d578063f2fde38b146104d6578063fb2f1ffb146104f657600080fd5b8063a22cb465146103db578063a36701a9146103fb578063b88d4fde1461045a57600080fd5b806389e71d07116100bb57806389e71d071461037b5780638da5cb5b146103a857806395d89b41146103c657600080fd5b806370a0823114610326578063715018a6146103465780638894a5461461035b57600080fd5b806323b872dd116101435780634f6ccce71161011d5780634f6ccce7146102c657806355f804b3146102e65780636352211e1461030657600080fd5b806323b872dd146102805780632f745c591461029357806342842e0e146102b357600080fd5b8063081812fc11610174578063081812fc14610207578063095ea7b31461023f57806318160ddd1461026157600080fd5b806301ffc9a71461019b57806306fdde03146101d0578063077fc040146101f2575b600080fd5b3480156101a757600080fd5b506101bb6101b6366004611d0e565b610509565b60405190151581526020015b60405180910390f35b3480156101dc57600080fd5b506101e5610534565b6040516101c79190611d83565b3480156101fe57600080fd5b506101e56105c6565b34801561021357600080fd5b50610227610222366004611d96565b610654565b6040516001600160a01b0390911681526020016101c7565b34801561024b57600080fd5b5061025f61025a366004611dcb565b6106ee565b005b34801561026d57600080fd5b506008545b6040519081526020016101c7565b61025f61028e366004611df5565b610804565b34801561029f57600080fd5b506102726102ae366004611dcb565b61096d565b61025f6102c1366004611df5565b610a15565b3480156102d257600080fd5b506102726102e1366004611d96565b610a30565b3480156102f257600080fd5b5061025f610301366004611ebd565b610ad4565b34801561031257600080fd5b50610227610321366004611d96565b610b45565b34801561033257600080fd5b50610272610341366004611f06565b610bd0565b34801561035257600080fd5b5061025f610c6a565b34801561036757600080fd5b5061025f610376366004611f30565b610cd0565b34801561038757600080fd5b50610272610396366004611d96565b60106020526000908152604090205481565b3480156103b457600080fd5b50600a546001600160a01b0316610227565b3480156103d257600080fd5b506101e5610d56565b3480156103e757600080fd5b5061025f6103f6366004611f4c565b610d65565b34801561040757600080fd5b5061044a610416366004611d96565b601160205260009081526040902080546001820154600283015460039093015491926001600160a01b039091169160ff1684565b6040516101c79493929190611f9e565b61025f610468366004611fe8565b610d70565b34801561047957600080fd5b506101e5610488366004611d96565b610ee0565b34801561049957600080fd5b506101bb6104a8366004612064565b6001600160a01b03918216600090815260056020908152604080832093909416825291909152205460ff1690565b3480156104e257600080fd5b5061025f6104f1366004611f06565b610fcc565b61025f610504366004612097565b6110ae565b60006001600160e01b0319821663780e9d6360e01b148061052e575061052e82611246565b92915050565b606060008054610543906120ba565b80601f016020809104026020016040519081016040528092919081815260200182805461056f906120ba565b80156105bc5780601f10610591576101008083540402835291602001916105bc565b820191906000526020600020905b81548152906001019060200180831161059f57829003601f168201915b5050505050905090565b600f80546105d3906120ba565b80601f01602080910402602001604051908101604052809291908181526020018280546105ff906120ba565b801561064c5780601f106106215761010080835404028352916020019161064c565b820191906000526020600020905b81548152906001019060200180831161062f57829003601f168201915b505050505081565b6000818152600260205260408120546001600160a01b03166106d25760405162461bcd60e51b815260206004820152602c60248201527f4552433732313a20617070726f76656420717565727920666f72206e6f6e657860448201526b34b9ba32b73a103a37b5b2b760a11b60648201526084015b60405180910390fd5b506000908152600460205260409020546001600160a01b031690565b60006106f982610b45565b9050806001600160a01b0316836001600160a01b031614156107675760405162461bcd60e51b815260206004820152602160248201527f4552433732313a20617070726f76616c20746f2063757272656e74206f776e656044820152603960f91b60648201526084016106c9565b336001600160a01b0382161480610783575061078381336104a8565b6107f55760405162461bcd60e51b815260206004820152603860248201527f4552433732313a20617070726f76652063616c6c6572206973206e6f74206f7760448201527f6e6572206e6f7220617070726f76656420666f7220616c6c000000000000000060648201526084016106c9565b6107ff8383611296565b505050565b61080e3382611311565b6108475760405162461bcd60e51b815260206004820152600a6024820152694552433732313a204e4160b01b60448201526064016106c9565b341561096257600081815260116020526040812060030154601090829060ff16600481111561087857610878611f88565b81526020808201929092526040908101600090812054858252601190935220600101549091506108b1906001600160a01b031682611408565b60006001600160a01b0385166108c7833461210b565b604051600081818185875af1925050503d8060008114610903576040519150601f19603f3d011682016040523d82523d6000602084013e610908565b606091505b505090508061091657600080fd5b604080516001600160a01b03878116825286166020820152348183015290517f3f3483d0995db4c081e0101ef6753bef457833c20605cd871de61dcb48085a9a9181900360600190a150505b6107ff838383610a15565b600061097883610bd0565b82106109ec5760405162461bcd60e51b815260206004820152602b60248201527f455243373231456e756d657261626c653a206f776e657220696e646578206f7560448201527f74206f6620626f756e647300000000000000000000000000000000000000000060648201526084016106c9565b506001600160a01b03919091166000908152600660209081526040808320938352929052205490565b6107ff83838360405180602001604052806000815250610d70565b6000610a3b60085490565b8210610aaf5760405162461bcd60e51b815260206004820152602c60248201527f455243373231456e756d657261626c653a20676c6f62616c20696e646578206f60448201527f7574206f6620626f756e6473000000000000000000000000000000000000000060648201526084016106c9565b60088281548110610ac257610ac2612122565b90600052602060002001549050919050565b600a546001600160a01b03163314610b2e5760405162461bcd60e51b815260206004820181905260248201527f4f776e61626c653a2063616c6c6572206973206e6f7420746865206f776e657260448201526064016106c9565b8051610b4190600e906020840190611c5f565b5050565b6000818152600260205260408120546001600160a01b03168061052e5760405162461bcd60e51b815260206004820152602960248201527f4552433732313a206f776e657220717565727920666f72206e6f6e657869737460448201527f656e7420746f6b656e000000000000000000000000000000000000000000000060648201526084016106c9565b60006001600160a01b038216610c4e5760405162461bcd60e51b815260206004820152602a60248201527f4552433732313a2062616c616e636520717565727920666f7220746865207a6560448201527f726f20616464726573730000000000000000000000000000000000000000000060648201526084016106c9565b506001600160a01b031660009081526003602052604090205490565b600a546001600160a01b03163314610cc45760405162461bcd60e51b815260206004820181905260248201527f4f776e61626c653a2063616c6c6572206973206e6f7420746865206f776e657260448201526064016106c9565b610cce6000611468565b565b600a546001600160a01b03163314610d2a5760405162461bcd60e51b815260206004820181905260248201527f4f776e61626c653a2063616c6c6572206973206e6f7420746865206f776e657260448201526064016106c9565b8060106000846004811115610d4157610d41611f88565b81526020810191909152604001600020555050565b606060018054610543906120ba565b610b413383836114c7565b610d7a3383611311565b610db35760405162461bcd60e51b815260206004820152600a6024820152694552433732313a204e4160b01b60448201526064016106c9565b3415610ece57600082815260116020526040812060030154601090829060ff166004811115610de457610de4611f88565b8152602080820192909252604090810160009081205486825260119093522060010154909150610e1d906001600160a01b031682611408565b60006001600160a01b038616610e33833461210b565b604051600081818185875af1925050503d8060008114610e6f576040519150601f19603f3d011682016040523d82523d6000602084013e610e74565b606091505b5050905080610e8257600080fd5b604080516001600160a01b03888116825287166020820152348183015290517f3f3483d0995db4c081e0101ef6753bef457833c20605cd871de61dcb48085a9a9181900360600190a150505b610eda84848484610d70565b50505050565b6000818152600260205260409020546060906001600160a01b0316610f6d5760405162461bcd60e51b815260206004820152602f60248201527f4552433732314d657461646174613a2055524920717565727920666f72206e6f60448201527f6e6578697374656e7420746f6b656e000000000000000000000000000000000060648201526084016106c9565b6000610f77611596565b90506000815111610f975760405180602001604052806000815250610fc5565b80610fa1846115a5565b600f604051602001610fb593929190612138565b6040516020818303038152906040525b9392505050565b600a546001600160a01b031633146110265760405162461bcd60e51b815260206004820181905260248201527f4f776e61626c653a2063616c6c6572206973206e6f7420746865206f776e657260448201526064016106c9565b6001600160a01b0381166110a25760405162461bcd60e51b815260206004820152602660248201527f4f776e61626c653a206e6577206f776e657220697320746865207a65726f206160448201527f646472657373000000000000000000000000000000000000000000000000000060648201526084016106c9565b6110ab81611468565b50565b60006110b960085490565b905060006040518060800160405280838152602001336001600160a01b031681526020018581526020018460048111156110f5576110f5611f88565b90529050600060108185600481111561111057611110611f88565b8152602001908152602001600020549050600c5485116111725760405162461bcd60e51b815260206004820152601360248201527f4e4654206861766520736f6d652076616c75650000000000000000000000000060448201526064016106c9565b600d546001600160a01b0316331461122857606461119082346121fc565b61119a9190612231565b60208301519091506001600160a01b0316156111be576111be826020015182611408565b600d546000906001600160a01b03166111d7833461210b565b604051600081818185875af1925050503d8060008114611213576040519150601f19603f3d011682016040523d82523d6000602084013e611218565b606091505b505090508061122657600080fd5b505b61123f33611237856001612245565b60ff166116bb565b5050505050565b60006001600160e01b031982166380ac58cd60e01b148061127757506001600160e01b03198216635b5e139f60e01b145b8061052e57506301ffc9a760e01b6001600160e01b031983161461052e565b6000818152600460205260409020805473ffffffffffffffffffffffffffffffffffffffff19166001600160a01b03841690811790915581906112d882610b45565b6001600160a01b03167f8c5be1e5ebec7d5bd14f71427d1e84f3dd0314c0f7b2291e5b200ac8c7c3b92560405160405180910390a45050565b6000818152600260205260408120546001600160a01b031661138a5760405162461bcd60e51b815260206004820152602c60248201527f4552433732313a206f70657261746f7220717565727920666f72206e6f6e657860448201526b34b9ba32b73a103a37b5b2b760a11b60648201526084016106c9565b600061139583610b45565b9050806001600160a01b0316846001600160a01b031614806113d05750836001600160a01b03166113c584610654565b6001600160a01b0316145b8061140057506001600160a01b0380821660009081526005602090815260408083209388168352929052205460ff165b949350505050565b6000826001600160a01b03168260405160006040518083038185875af1925050503d8060008114611455576040519150601f19603f3d011682016040523d82523d6000602084013e61145a565b606091505b50509050806107ff57600080fd5b600a80546001600160a01b0383811673ffffffffffffffffffffffffffffffffffffffff19831681179093556040519116919082907f8be0079c531659141344cd1fd0a4f28419497f9722a3daafe3b4186f6b6457e090600090a35050565b816001600160a01b0316836001600160a01b031614156115295760405162461bcd60e51b815260206004820152601960248201527f4552433732313a20617070726f766520746f2063616c6c65720000000000000060448201526064016106c9565b6001600160a01b03838116600081815260056020908152604080832094871680845294825291829020805460ff191686151590811790915591519182527f17307eab39ab6107e8899845ad3d59bd9653f200f220920489ca2b5937696c31910160405180910390a3505050565b6060600e8054610543906120ba565b6060816115c95750506040805180820190915260018152600360fc1b602082015290565b8160005b81156115f357806115dd8161225d565b91506115ec9050600a83612231565b91506115cd565b60008167ffffffffffffffff81111561160e5761160e611e31565b6040519080825280601f01601f191660200182016040528015611638576020820181803683370190505b5090505b84156114005761164d60018361210b565b915061165a600a86612278565b611665906030612245565b60f81b81838151811061167a5761167a612122565b60200101907effffffffffffffffffffffffffffffffffffffffffffffffffffffffffffff1916908160001a9053506116b4600a86612231565b945061163c565b610b418282604051806020016040528060008152506116da8383611759565b6116e760008484846118b4565b6107ff5760405162461bcd60e51b815260206004820152603260248201527f4552433732313a207472616e7366657220746f206e6f6e20455243373231526560448201527f63656976657220696d706c656d656e746572000000000000000000000000000060648201526084016106c9565b6001600160a01b0382166117af5760405162461bcd60e51b815260206004820181905260248201527f4552433732313a206d696e7420746f20746865207a65726f206164647265737360448201526064016106c9565b6000818152600260205260409020546001600160a01b0316156118145760405162461bcd60e51b815260206004820152601c60248201527f4552433732313a20746f6b656e20616c7265616479206d696e7465640000000060448201526064016106c9565b61182060008383611a17565b6001600160a01b0382166000908152600360205260408120805460019290611849908490612245565b9091555050600081815260026020526040808220805473ffffffffffffffffffffffffffffffffffffffff19166001600160a01b03861690811790915590518392907fddf252ad1be2c89b69c2b068fc378daa952ba7f163c4a11628f55a4df523b3ef908290a45050565b60006001600160a01b0384163b15611a0c57604051630a85bd0160e11b81526001600160a01b0385169063150b7a02906118f890339089908890889060040161228c565b602060405180830381600087803b15801561191257600080fd5b505af1925050508015611942575060408051601f3d908101601f1916820190925261193f918101906122c8565b60015b6119f2573d808015611970576040519150601f19603f3d011682016040523d82523d6000602084013e611975565b606091505b5080516119ea5760405162461bcd60e51b815260206004820152603260248201527f4552433732313a207472616e7366657220746f206e6f6e20455243373231526560448201527f63656976657220696d706c656d656e746572000000000000000000000000000060648201526084016106c9565b805181602001fd5b6001600160e01b031916630a85bd0160e11b149050611400565b506001949350505050565b6001600160a01b038316611a7257611a6d81600880546000838152600960205260408120829055600182018355919091527ff3f7a9fe364faab93b216da50a3214154f22a0a2b415b23a84c8169e8b636ee30155565b611a95565b816001600160a01b0316836001600160a01b031614611a9557611a958382611acf565b6001600160a01b038216611aac576107ff81611b6c565b826001600160a01b0316826001600160a01b0316146107ff576107ff8282611c1b565b60006001611adc84610bd0565b611ae6919061210b565b600083815260076020526040902054909150808214611b39576001600160a01b03841660009081526006602090815260408083208584528252808320548484528184208190558352600790915290208190555b5060009182526007602090815260408084208490556001600160a01b039094168352600681528383209183525290812055565b600854600090611b7e9060019061210b565b60008381526009602052604081205460088054939450909284908110611ba657611ba6612122565b906000526020600020015490508060088381548110611bc757611bc7612122565b6000918252602080832090910192909255828152600990915260408082208490558582528120556008805480611bff57611bff6122e5565b6001900381819060005260206000200160009055905550505050565b6000611c2683610bd0565b6001600160a01b039093166000908152600660209081526040808320868452825280832085905593825260079052919091209190915550565b828054611c6b906120ba565b90600052602060002090601f016020900481019282611c8d5760008555611cd3565b82601f10611ca657805160ff1916838001178555611cd3565b82800160010185558215611cd3579182015b82811115611cd3578251825591602001919060010190611cb8565b50611cdf929150611ce3565b5090565b5b80821115611cdf5760008155600101611ce4565b6001600160e01b0319811681146110ab57600080fd5b600060208284031215611d2057600080fd5b8135610fc581611cf8565b60005b83811015611d46578181015183820152602001611d2e565b83811115610eda5750506000910152565b60008151808452611d6f816020860160208601611d2b565b601f01601f19169290920160200192915050565b602081526000610fc56020830184611d57565b600060208284031215611da857600080fd5b5035919050565b80356001600160a01b0381168114611dc657600080fd5b919050565b60008060408385031215611dde57600080fd5b611de783611daf565b946020939093013593505050565b600080600060608486031215611e0a57600080fd5b611e1384611daf565b9250611e2160208501611daf565b9150604084013590509250925092565b634e487b7160e01b600052604160045260246000fd5b600067ffffffffffffffff80841115611e6257611e62611e31565b604051601f8501601f19908116603f01168101908282118183101715611e8a57611e8a611e31565b81604052809350858152868686011115611ea357600080fd5b858560208301376000602087830101525050509392505050565b600060208284031215611ecf57600080fd5b813567ffffffffffffffff811115611ee657600080fd5b8201601f81018413611ef757600080fd5b61140084823560208401611e47565b600060208284031215611f1857600080fd5b610fc582611daf565b803560058110611dc657600080fd5b60008060408385031215611f4357600080fd5b611de783611f21565b60008060408385031215611f5f57600080fd5b611f6883611daf565b915060208301358015158114611f7d57600080fd5b809150509250929050565b634e487b7160e01b600052602160045260246000fd5b8481526001600160a01b0384166020820152604081018390526080810160058310611fd957634e487b7160e01b600052602160045260246000fd5b82606083015295945050505050565b60008060008060808587031215611ffe57600080fd5b61200785611daf565b935061201560208601611daf565b925060408501359150606085013567ffffffffffffffff81111561203857600080fd5b8501601f8101871361204957600080fd5b61205887823560208401611e47565b91505092959194509250565b6000806040838503121561207757600080fd5b61208083611daf565b915061208e60208401611daf565b90509250929050565b600080604083850312156120aa57600080fd5b8235915061208e60208401611f21565b600181811c908216806120ce57607f821691505b602082108114156120ef57634e487b7160e01b600052602260045260246000fd5b50919050565b634e487b7160e01b600052601160045260246000fd5b60008282101561211d5761211d6120f5565b500390565b634e487b7160e01b600052603260045260246000fd5b60008451602061214b8285838a01611d2b565b85519184019161215e8184848a01611d2b565b8554920191600090600181811c908083168061217b57607f831692505b85831081141561219957634e487b7160e01b85526022600452602485fd5b8080156121ad57600181146121be576121eb565b60ff198516885283880195506121eb565b60008b81526020902060005b858110156121e35781548a8201529084019088016121ca565b505083880195505b50939b9a5050505050505050505050565b6000816000190483118215151615612216576122166120f5565b500290565b634e487b7160e01b600052601260045260246000fd5b6000826122405761224061221b565b500490565b60008219821115612258576122586120f5565b500190565b6000600019821415612271576122716120f5565b5060010190565b6000826122875761228761221b565b500690565b60006001600160a01b038087168352808616602084015250836040830152608060608301526122be6080830184611d57565b9695505050505050565b6000602082840312156122da57600080fd5b8151610fc581611cf8565b634e487b7160e01b600052603160045260246000fdfea164736f6c6343000809000a",
  "linkReferences": {},
  "deployedLinkReferences": {}
}